{
  "contractName": "KeepBonding",
  "abi": [
    {
      "inputs": [
        {
          "internalType": "address",
          "name": "registryAddress",
          "type": "address"
        },
        {
          "internalType": "address",
          "name": "tokenStakingAddress",
          "type": "address"
        },
        {
          "internalType": "address",
          "name": "tokenGrantAddress",
          "type": "address"
        }
      ],
      "payable": false,
      "stateMutability": "nonpayable",
      "type": "constructor"
    },
    {
      "anonymous": false,
      "inputs": [
        {
          "indexed": true,
          "internalType": "address",
          "name": "operator",
          "type": "address"
        },
        {
          "indexed": true,
          "internalType": "address",
          "name": "holder",
          "type": "address"
        },
        {
          "indexed": true,
          "internalType": "address",
          "name": "sortitionPool",
          "type": "address"
        },
        {
          "indexed": false,
          "internalType": "uint256",
          "name": "referenceID",
          "type": "uint256"
        },
        {
          "indexed": false,
          "internalType": "uint256",
          "name": "amount",
          "type": "uint256"
        }
      ],
      "name": "BondCreated",
      "type": "event"
    },
    {
      "anonymous": false,
      "inputs": [
        {
          "indexed": true,
          "internalType": "address",
          "name": "operator",
          "type": "address"
        },
        {
          "indexed": true,
          "internalType": "uint256",
          "name": "referenceID",
          "type": "uint256"
        },
        {
          "indexed": false,
          "internalType": "address",
          "name": "newHolder",
          "type": "address"
        },
        {
          "indexed": false,
          "internalType": "uint256",
          "name": "newReferenceID",
          "type": "uint256"
        }
      ],
      "name": "BondReassigned",
      "type": "event"
    },
    {
      "anonymous": false,
      "inputs": [
        {
          "indexed": true,
          "internalType": "address",
          "name": "operator",
          "type": "address"
        },
        {
          "indexed": true,
          "internalType": "uint256",
          "name": "referenceID",
          "type": "uint256"
        }
      ],
      "name": "BondReleased",
      "type": "event"
    },
    {
      "anonymous": false,
      "inputs": [
        {
          "indexed": true,
          "internalType": "address",
          "name": "operator",
          "type": "address"
        },
        {
          "indexed": true,
          "internalType": "uint256",
          "name": "referenceID",
          "type": "uint256"
        },
        {
          "indexed": false,
          "internalType": "address",
          "name": "destination",
          "type": "address"
        },
        {
          "indexed": false,
          "internalType": "uint256",
          "name": "amount",
          "type": "uint256"
        }
      ],
      "name": "BondSeized",
      "type": "event"
    },
    {
      "anonymous": false,
      "inputs": [
        {
          "indexed": true,
          "internalType": "address",
          "name": "operator",
          "type": "address"
        },
        {
          "indexed": false,
          "internalType": "uint256",
          "name": "amount",
          "type": "uint256"
        }
      ],
      "name": "UnbondedValueDeposited",
      "type": "event"
    },
    {
      "anonymous": false,
      "inputs": [
        {
          "indexed": true,
          "internalType": "address",
          "name": "operator",
          "type": "address"
        },
        {
          "indexed": false,
          "internalType": "uint256",
          "name": "amount",
          "type": "uint256"
        }
      ],
      "name": "UnbondedValueWithdrawn",
      "type": "event"
    },
    {
      "constant": true,
      "inputs": [
        {
          "internalType": "address",
          "name": "",
          "type": "address"
        }
      ],
      "name": "unbondedValue",
      "outputs": [
        {
          "internalType": "uint256",
          "name": "",
          "type": "uint256"
        }
      ],
      "payable": false,
      "stateMutability": "view",
      "type": "function"
    },
    {
      "constant": false,
      "inputs": [
        {
          "internalType": "address",
          "name": "operator",
          "type": "address"
        }
      ],
      "name": "deposit",
      "outputs": [],
      "payable": true,
      "stateMutability": "payable",
      "type": "function"
    },
    {
      "constant": true,
      "inputs": [
        {
          "internalType": "address",
          "name": "operator",
          "type": "address"
        },
        {
          "internalType": "address",
          "name": "bondCreator",
          "type": "address"
        },
        {
          "internalType": "address",
          "name": "authorizedSortitionPool",
          "type": "address"
        }
      ],
      "name": "availableUnbondedValue",
      "outputs": [
        {
          "internalType": "uint256",
          "name": "",
          "type": "uint256"
        }
      ],
      "payable": false,
      "stateMutability": "view",
      "type": "function"
    },
    {
      "constant": false,
      "inputs": [
        {
          "internalType": "uint256",
          "name": "amount",
          "type": "uint256"
        },
        {
          "internalType": "address",
          "name": "operator",
          "type": "address"
        }
      ],
      "name": "withdraw",
      "outputs": [],
      "payable": false,
      "stateMutability": "nonpayable",
      "type": "function"
    },
    {
      "constant": false,
      "inputs": [
        {
          "internalType": "uint256",
          "name": "amount",
          "type": "uint256"
        },
        {
          "internalType": "address",
          "name": "operator",
          "type": "address"
        },
        {
          "internalType": "address",
          "name": "managedGrant",
          "type": "address"
        }
      ],
      "name": "withdrawAsManagedGrantee",
      "outputs": [],
      "payable": false,
      "stateMutability": "nonpayable",
      "type": "function"
    },
    {
      "constant": false,
      "inputs": [
        {
          "internalType": "address",
          "name": "operator",
          "type": "address"
        },
        {
          "internalType": "address",
          "name": "holder",
          "type": "address"
        },
        {
          "internalType": "uint256",
          "name": "referenceID",
          "type": "uint256"
        },
        {
          "internalType": "uint256",
          "name": "amount",
          "type": "uint256"
        },
        {
          "internalType": "address",
          "name": "authorizedSortitionPool",
          "type": "address"
        }
      ],
      "name": "createBond",
      "outputs": [],
      "payable": false,
      "stateMutability": "nonpayable",
      "type": "function"
    },
    {
      "constant": true,
      "inputs": [
        {
          "internalType": "address",
          "name": "operator",
          "type": "address"
        },
        {
          "internalType": "address",
          "name": "holder",
          "type": "address"
        },
        {
          "internalType": "uint256",
          "name": "referenceID",
          "type": "uint256"
        }
      ],
      "name": "bondAmount",
      "outputs": [
        {
          "internalType": "uint256",
          "name": "",
          "type": "uint256"
        }
      ],
      "payable": false,
      "stateMutability": "view",
      "type": "function"
    },
    {
      "constant": false,
      "inputs": [
        {
          "internalType": "address",
          "name": "operator",
          "type": "address"
        },
        {
          "internalType": "uint256",
          "name": "referenceID",
          "type": "uint256"
        },
        {
          "internalType": "address",
          "name": "newHolder",
          "type": "address"
        },
        {
          "internalType": "uint256",
          "name": "newReferenceID",
          "type": "uint256"
        }
      ],
      "name": "reassignBond",
      "outputs": [],
      "payable": false,
      "stateMutability": "nonpayable",
      "type": "function"
    },
    {
      "constant": false,
      "inputs": [
        {
          "internalType": "address",
          "name": "operator",
          "type": "address"
        },
        {
          "internalType": "uint256",
          "name": "referenceID",
          "type": "uint256"
        }
      ],
      "name": "freeBond",
      "outputs": [],
      "payable": false,
      "stateMutability": "nonpayable",
      "type": "function"
    },
    {
      "constant": false,
      "inputs": [
        {
          "internalType": "address",
          "name": "operator",
          "type": "address"
        },
        {
          "internalType": "uint256",
          "name": "referenceID",
          "type": "uint256"
        },
        {
          "internalType": "uint256",
          "name": "amount",
          "type": "uint256"
        },
        {
          "internalType": "address payable",
          "name": "destination",
          "type": "address"
        }
      ],
      "name": "seizeBond",
      "outputs": [],
      "payable": false,
      "stateMutability": "nonpayable",
      "type": "function"
    },
    {
      "constant": false,
      "inputs": [
        {
          "internalType": "address",
          "name": "_operator",
          "type": "address"
        },
        {
          "internalType": "address",
          "name": "_poolAddress",
          "type": "address"
        }
      ],
      "name": "authorizeSortitionPoolContract",
      "outputs": [],
      "payable": false,
      "stateMutability": "nonpayable",
      "type": "function"
    },
    {
      "constant": false,
      "inputs": [
        {
          "internalType": "address",
          "name": "_operator",
          "type": "address"
        },
        {
          "internalType": "address",
          "name": "_poolAddress",
          "type": "address"
        }
      ],
      "name": "deauthorizeSortitionPoolContract",
      "outputs": [],
      "payable": false,
      "stateMutability": "nonpayable",
      "type": "function"
    },
    {
      "constant": true,
      "inputs": [
        {
          "internalType": "address",
          "name": "_operator",
          "type": "address"
        },
        {
          "internalType": "address",
          "name": "_poolAddress",
          "type": "address"
        }
      ],
      "name": "hasSecondaryAuthorization",
      "outputs": [
        {
          "internalType": "bool",
          "name": "",
          "type": "bool"
        }
      ],
      "payable": false,
      "stateMutability": "view",
      "type": "function"
    }
  ],
  "bytecode": "0x608060405234801561001057600080fd5b506040516128ec3803806128ec8339818101604052606081101561003357600080fd5b81019080805190602001909291908051906020019092919080519060200190929190505050826000806101000a81548173ffffffffffffffffffffffffffffffffffffffff021916908373ffffffffffffffffffffffffffffffffffffffff16021790555081600160006101000a81548173ffffffffffffffffffffffffffffffffffffffff021916908373ffffffffffffffffffffffffffffffffffffffff16021790555080600260006101000a81548173ffffffffffffffffffffffffffffffffffffffff021916908373ffffffffffffffffffffffffffffffffffffffff1602179055505050506127c08061012c6000396000f3fe6080604052600436106100c15760003560e01c80635fcac8ff1161007f578063972f245711610059578063972f24571461050f578063c578617414610594578063d20a62fc14610605578063f340fa01146106aa576100c1565b80635fcac8ff146103b057806378f011c11461042b5780637ab3cf93146104b4576100c1565b8062f714ce146100c65780630b102471146101215780630cb0a6771461019257806342bcb96514610217578063446f0f9e146102bc5780635823cfad1461034b575b600080fd5b3480156100d257600080fd5b5061011f600480360360408110156100e957600080fd5b8101908080359060200190929190803573ffffffffffffffffffffffffffffffffffffffff1690602001909291905050506106ee565b005b34801561012d57600080fd5b506101906004803603604081101561014457600080fd5b81019080803573ffffffffffffffffffffffffffffffffffffffff169060200190929190803573ffffffffffffffffffffffffffffffffffffffff169060200190929190505050610828565b005b34801561019e57600080fd5b50610215600480360360808110156101b557600080fd5b81019080803573ffffffffffffffffffffffffffffffffffffffff1690602001909291908035906020019092919080359060200190929190803573ffffffffffffffffffffffffffffffffffffffff169060200190929190505050610a3b565b005b34801561022357600080fd5b506102a66004803603606081101561023a57600080fd5b81019080803573ffffffffffffffffffffffffffffffffffffffff169060200190929190803573ffffffffffffffffffffffffffffffffffffffff169060200190929190803573ffffffffffffffffffffffffffffffffffffffff169060200190929190505050610d43565b6040518082815260200191505060405180910390f35b3480156102c857600080fd5b50610335600480360360608110156102df57600080fd5b81019080803573ffffffffffffffffffffffffffffffffffffffff169060200190929190803573ffffffffffffffffffffffffffffffffffffffff16906020019092919080359060200190929190505050610f9e565b6040518082815260200191505060405180910390f35b34801561035757600080fd5b5061039a6004803603602081101561036e57600080fd5b81019080803573ffffffffffffffffffffffffffffffffffffffff169060200190929190505050611056565b6040518082815260200191505060405180910390f35b3480156103bc57600080fd5b50610429600480360360608110156103d357600080fd5b8101908080359060200190929190803573ffffffffffffffffffffffffffffffffffffffff169060200190929190803573ffffffffffffffffffffffffffffffffffffffff16906020019092919050505061106e565b005b34801561043757600080fd5b5061049a6004803603604081101561044e57600080fd5b81019080803573ffffffffffffffffffffffffffffffffffffffff169060200190929190803573ffffffffffffffffffffffffffffffffffffffff169060200190929190505050611121565b604051808215151515815260200191505060405180910390f35b3480156104c057600080fd5b5061050d600480360360408110156104d757600080fd5b81019080803573ffffffffffffffffffffffffffffffffffffffff169060200190929190803590602001909291905050506111b5565b005b34801561051b57600080fd5b506105926004803603608081101561053257600080fd5b81019080803573ffffffffffffffffffffffffffffffffffffffff16906020019092919080359060200190929190803573ffffffffffffffffffffffffffffffffffffffff169060200190929190803590602001909291905050506113ed565b005b3480156105a057600080fd5b50610603600480360360408110156105b757600080fd5b81019080803573ffffffffffffffffffffffffffffffffffffffff169060200190929190803573ffffffffffffffffffffffffffffffffffffffff1690602001909291905050506116e9565b005b34801561061157600080fd5b506106a8600480360360a081101561062857600080fd5b81019080803573ffffffffffffffffffffffffffffffffffffffff169060200190929190803573ffffffffffffffffffffffffffffffffffffffff1690602001909291908035906020019092919080359060200190929190803573ffffffffffffffffffffffffffffffffffffffff1690602001909291905050506118fc565b005b6106ec600480360360208110156106c057600080fd5b81019080803573ffffffffffffffffffffffffffffffffffffffff169060200190929190505050611bdf565b005b8073ffffffffffffffffffffffffffffffffffffffff163373ffffffffffffffffffffffffffffffffffffffff161480610771575061077081600160009054906101000a900473ffffffffffffffffffffffffffffffffffffffff163373ffffffffffffffffffffffffffffffffffffffff16611cc59092919063ffffffff16565b5b806107c557506107c481600260009054906101000a900473ffffffffffffffffffffffffffffffffffffffff163373ffffffffffffffffffffffffffffffffffffffff16611db69092919063ffffffff16565b5b61081a576040517f08c379a00000000000000000000000000000000000000000000000000000000081526004018080602001828103825260368152602001806127306036913960400191505060405180910390fd5b6108248282611f2b565b5050565b3373ffffffffffffffffffffffffffffffffffffffff16600160009054906101000a900473ffffffffffffffffffffffffffffffffffffffff1673ffffffffffffffffffffffffffffffffffffffff1663fb1677b1846040518263ffffffff1660e01b8152600401808273ffffffffffffffffffffffffffffffffffffffff1673ffffffffffffffffffffffffffffffffffffffff16815260200191505060206040518083038186803b1580156108de57600080fd5b505afa1580156108f2573d6000803e3d6000fd5b505050506040513d602081101561090857600080fd5b810190808051906020019092919050505073ffffffffffffffffffffffffffffffffffffffff16146109a2576040517f08c379a000000000000000000000000000000000000000000000000000000000815260040180806020018281038252600e8152602001807f4e6f7420617574686f72697a656400000000000000000000000000000000000081525060200191505060405180910390fd5b6000600560008473ffffffffffffffffffffffffffffffffffffffff1673ffffffffffffffffffffffffffffffffffffffff16815260200190815260200160002060008373ffffffffffffffffffffffffffffffffffffffff1673ffffffffffffffffffffffffffffffffffffffff16815260200190815260200160002060006101000a81548160ff0219169083151502179055505050565b60008211610a94576040517f08c379a000000000000000000000000000000000000000000000000000000000815260040180806020018281038252602c815260200180612704602c913960400191505060405180910390fd5b60003390506000858286604051602001808473ffffffffffffffffffffffffffffffffffffffff1673ffffffffffffffffffffffffffffffffffffffff1660601b81526014018373ffffffffffffffffffffffffffffffffffffffff1673ffffffffffffffffffffffffffffffffffffffff1660601b815260140182815260200193505050506040516020818303038152906040528051906020012090508360046000838152602001908152602001600020541015610b9e576040517f08c379a00000000000000000000000000000000000000000000000000000000081526004018080602001828103825260298152602001806126b36029913960400191505060405180910390fd5b610bc484600460008481526020019081526020016000205461227d90919063ffffffff16565b600460008381526020019081526020016000208190555060008373ffffffffffffffffffffffffffffffffffffffff168560405180600001905060006040518083038185875af1925050503d8060008114610c3b576040519150601f19603f3d011682016040523d82523d6000602084013e610c40565b606091505b5050905080610cb7576040517f08c379a000000000000000000000000000000000000000000000000000000000815260040180806020018281038252600f8152602001807f5472616e73666572206661696c6564000000000000000000000000000000000081525060200191505060405180910390fd5b858773ffffffffffffffffffffffffffffffffffffffff167ff8e947b47b515d01aa96426822ddcf23a08f42d8c2dbfd65e674ba824f5513828688604051808373ffffffffffffffffffffffffffffffffffffffff1673ffffffffffffffffffffffffffffffffffffffff1681526020018281526020019250505060405180910390a350505050505050565b60008060009054906101000a900473ffffffffffffffffffffffffffffffffffffffff1673ffffffffffffffffffffffffffffffffffffffff166384d57689846040518263ffffffff1660e01b8152600401808273ffffffffffffffffffffffffffffffffffffffff1673ffffffffffffffffffffffffffffffffffffffff16815260200191505060206040518083038186803b158015610de357600080fd5b505afa158015610df7573d6000803e3d6000fd5b505050506040513d6020811015610e0d57600080fd5b81019080805190602001909291905050508015610f345750600160009054906101000a900473ffffffffffffffffffffffffffffffffffffffff1673ffffffffffffffffffffffffffffffffffffffff1663ef1f966185856040518363ffffffff1660e01b8152600401808373ffffffffffffffffffffffffffffffffffffffff1673ffffffffffffffffffffffffffffffffffffffff1681526020018273ffffffffffffffffffffffffffffffffffffffff1673ffffffffffffffffffffffffffffffffffffffff1681526020019250505060206040518083038186803b158015610ef857600080fd5b505afa158015610f0c573d6000803e3d6000fd5b505050506040513d6020811015610f2257600080fd5b81019080805190602001909291905050505b8015610f465750610f458483611121565b5b15610f9257600360008573ffffffffffffffffffffffffffffffffffffffff1673ffffffffffffffffffffffffffffffffffffffff168152602001908152602001600020549050610f97565b600090505b9392505050565b600080848484604051602001808473ffffffffffffffffffffffffffffffffffffffff1673ffffffffffffffffffffffffffffffffffffffff1660601b81526014018373ffffffffffffffffffffffffffffffffffffffff1673ffffffffffffffffffffffffffffffffffffffff1660601b8152601401828152602001935050505060405160208183030381529060405280519060200120905060046000828152602001908152602001600020549150509392505050565b60036020528060005260406000206000915090505481565b6110bd8282600260009054906101000a900473ffffffffffffffffffffffffffffffffffffffff163373ffffffffffffffffffffffffffffffffffffffff16612306909392919063ffffffff16565b611112576040517f08c379a00000000000000000000000000000000000000000000000000000000081526004018080602001828103825260288152602001806126dc6028913960400191505060405180910390fd5b61111c8383611f2b565b505050565b6000600560008473ffffffffffffffffffffffffffffffffffffffff1673ffffffffffffffffffffffffffffffffffffffff16815260200190815260200160002060008373ffffffffffffffffffffffffffffffffffffffff1673ffffffffffffffffffffffffffffffffffffffff16815260200190815260200160002060009054906101000a900460ff16905092915050565b60003390506000838284604051602001808473ffffffffffffffffffffffffffffffffffffffff1673ffffffffffffffffffffffffffffffffffffffff1660601b81526014018373ffffffffffffffffffffffffffffffffffffffff1673ffffffffffffffffffffffffffffffffffffffff1660601b8152601401828152602001935050505060405160208183030381529060405280519060200120905060006004600083815260200190815260200160002054116112dc576040517f08c379a000000000000000000000000000000000000000000000000000000000815260040180806020018281038252600e8152602001807f426f6e64206e6f7420666f756e6400000000000000000000000000000000000081525060200191505060405180910390fd5b6000600460008381526020019081526020016000205490506000600460008481526020019081526020016000208190555061135f81600360008873ffffffffffffffffffffffffffffffffffffffff1673ffffffffffffffffffffffffffffffffffffffff1681526020019081526020016000205461258090919063ffffffff16565b600360008773ffffffffffffffffffffffffffffffffffffffff1673ffffffffffffffffffffffffffffffffffffffff16815260200190815260200160002081905550838573ffffffffffffffffffffffffffffffffffffffff167f60b8ef4216791426b3d7acfb0b6d11a400872350afd70a3ce5ebf62bea7cb0d460405160405180910390a35050505050565b60003390506000858286604051602001808473ffffffffffffffffffffffffffffffffffffffff1673ffffffffffffffffffffffffffffffffffffffff1660601b81526014018373ffffffffffffffffffffffffffffffffffffffff1673ffffffffffffffffffffffffffffffffffffffff1660601b815260140182815260200193505050506040516020818303038152906040528051906020012090506000600460008381526020019081526020016000205411611514576040517f08c379a000000000000000000000000000000000000000000000000000000000815260040180806020018281038252600e8152602001807f426f6e64206e6f7420666f756e6400000000000000000000000000000000000081525060200191505060405180910390fd5b6000868585604051602001808473ffffffffffffffffffffffffffffffffffffffff1673ffffffffffffffffffffffffffffffffffffffff1660601b81526014018373ffffffffffffffffffffffffffffffffffffffff1673ffffffffffffffffffffffffffffffffffffffff1660601b815260140182815260200193505050506040516020818303038152906040528051906020012090506000600460008381526020019081526020016000205414611619576040517f08c379a000000000000000000000000000000000000000000000000000000000815260040180806020018281038252602f815260200180612684602f913960400191505060405180910390fd5b6004600083815260200190815260200160002054600460008381526020019081526020016000208190555060006004600084815260200190815260200160002081905550858773ffffffffffffffffffffffffffffffffffffffff167fb1d917176802bfbc813f2d82e745526029a4ccf0ea98d14e7a09a08703595b1e8787604051808373ffffffffffffffffffffffffffffffffffffffff1673ffffffffffffffffffffffffffffffffffffffff1681526020018281526020019250505060405180910390a350505050505050565b3373ffffffffffffffffffffffffffffffffffffffff16600160009054906101000a900473ffffffffffffffffffffffffffffffffffffffff1673ffffffffffffffffffffffffffffffffffffffff1663fb1677b1846040518263ffffffff1660e01b8152600401808273ffffffffffffffffffffffffffffffffffffffff1673ffffffffffffffffffffffffffffffffffffffff16815260200191505060206040518083038186803b15801561179f57600080fd5b505afa1580156117b3573d6000803e3d6000fd5b505050506040513d60208110156117c957600080fd5b810190808051906020019092919050505073ffffffffffffffffffffffffffffffffffffffff1614611863576040517f08c379a000000000000000000000000000000000000000000000000000000000815260040180806020018281038252600e8152602001807f4e6f7420617574686f72697a656400000000000000000000000000000000000081525060200191505060405180910390fd5b6001600560008473ffffffffffffffffffffffffffffffffffffffff1673ffffffffffffffffffffffffffffffffffffffff16815260200190815260200160002060008373ffffffffffffffffffffffffffffffffffffffff1673ffffffffffffffffffffffffffffffffffffffff16815260200190815260200160002060006101000a81548160ff0219169083151502179055505050565b81611908863384610d43565b101561197c576040517f08c379a000000000000000000000000000000000000000000000000000000000815260040180806020018281038252601b8152602001807f496e73756666696369656e7420756e626f6e6465642076616c7565000000000081525060200191505060405180910390fd5b6000858585604051602001808473ffffffffffffffffffffffffffffffffffffffff1673ffffffffffffffffffffffffffffffffffffffff1660601b81526014018373ffffffffffffffffffffffffffffffffffffffff1673ffffffffffffffffffffffffffffffffffffffff1660601b815260140182815260200193505050506040516020818303038152906040528051906020012090506000600460008381526020019081526020016000205414611a81576040517f08c379a000000000000000000000000000000000000000000000000000000000815260040180806020018281038252602f815260200180612684602f913960400191505060405180910390fd5b611ad383600360008973ffffffffffffffffffffffffffffffffffffffff1673ffffffffffffffffffffffffffffffffffffffff1681526020019081526020016000205461227d90919063ffffffff16565b600360008873ffffffffffffffffffffffffffffffffffffffff1673ffffffffffffffffffffffffffffffffffffffff16815260200190815260200160002081905550611b3c83600460008481526020019081526020016000205461258090919063ffffffff16565b60046000838152602001908152602001600020819055508173ffffffffffffffffffffffffffffffffffffffff168573ffffffffffffffffffffffffffffffffffffffff168773ffffffffffffffffffffffffffffffffffffffff167fa5543d8e139d9ab4342d5c4f6ec1bff5a97f9a52d71f7ffe9845b94f1449fc918787604051808381526020018281526020019250505060405180910390a4505050505050565b611c3134600360008473ffffffffffffffffffffffffffffffffffffffff1673ffffffffffffffffffffffffffffffffffffffff1681526020019081526020016000205461258090919063ffffffff16565b600360008373ffffffffffffffffffffffffffffffffffffffff1673ffffffffffffffffffffffffffffffffffffffff168152602001908152602001600020819055508073ffffffffffffffffffffffffffffffffffffffff167f3f2a154c5e312d6436c85eb3bcda38091a329b48efdeb8aa4a75cec1768e6635346040518082815260200191505060405180910390a250565b60008373ffffffffffffffffffffffffffffffffffffffff168273ffffffffffffffffffffffffffffffffffffffff166314afd79e856040518263ffffffff1660e01b8152600401808273ffffffffffffffffffffffffffffffffffffffff1673ffffffffffffffffffffffffffffffffffffffff16815260200191505060206040518083038186803b158015611d5b57600080fd5b505afa158015611d6f573d6000803e3d6000fd5b505050506040513d6020811015611d8557600080fd5b810190808051906020019092919050505073ffffffffffffffffffffffffffffffffffffffff161490509392505050565b600060608273ffffffffffffffffffffffffffffffffffffffff1663ca9a33ce866040518263ffffffff1660e01b8152600401808273ffffffffffffffffffffffffffffffffffffffff1673ffffffffffffffffffffffffffffffffffffffff16815260200191505060006040518083038186803b158015611e3757600080fd5b505afa158015611e4b573d6000803e3d6000fd5b505050506040513d6000823e3d601f19601f820116820180604052506020811015611e7557600080fd5b8101908080516040519392919084640100000000821115611e9557600080fd5b83820191506020820185811115611eab57600080fd5b8251866020820283011164010000000082111715611ec857600080fd5b8083526020830192505050908051906020019060200280838360005b83811015611eff578082015181840152602081019050611ee4565b505050509050016040525050509050611f21848261260890919063ffffffff16565b9150509392505050565b81600360008373ffffffffffffffffffffffffffffffffffffffff1673ffffffffffffffffffffffffffffffffffffffff168152602001908152602001600020541015611fe0576040517f08c379a000000000000000000000000000000000000000000000000000000000815260040180806020018281038252601b8152602001807f496e73756666696369656e7420756e626f6e6465642076616c7565000000000081525060200191505060405180910390fd5b61203282600360008473ffffffffffffffffffffffffffffffffffffffff1673ffffffffffffffffffffffffffffffffffffffff1681526020019081526020016000205461227d90919063ffffffff16565b600360008373ffffffffffffffffffffffffffffffffffffffff1673ffffffffffffffffffffffffffffffffffffffff168152602001908152602001600020819055506000600160009054906101000a900473ffffffffffffffffffffffffffffffffffffffff1673ffffffffffffffffffffffffffffffffffffffff1663ba7bffd3836040518263ffffffff1660e01b8152600401808273ffffffffffffffffffffffffffffffffffffffff1673ffffffffffffffffffffffffffffffffffffffff16815260200191505060206040518083038186803b15801561211657600080fd5b505afa15801561212a573d6000803e3d6000fd5b505050506040513d602081101561214057600080fd5b810190808051906020019092919050505073ffffffffffffffffffffffffffffffffffffffff168360405180600001905060006040518083038185875af1925050503d80600081146121ae576040519150601f19603f3d011682016040523d82523d6000602084013e6121b3565b606091505b505090508061222a576040517f08c379a000000000000000000000000000000000000000000000000000000000815260040180806020018281038252600f8152602001807f5472616e73666572206661696c6564000000000000000000000000000000000081525060200191505060405180910390fd5b8173ffffffffffffffffffffffffffffffffffffffff167fe1c60fe969095385a94672c6aac099e76551c7ec5e878f761c3ba800a4fc6473846040518082815260200191505060405180910390a2505050565b6000828211156122f5576040517f08c379a000000000000000000000000000000000000000000000000000000000815260040180806020018281038252601e8152602001807f536166654d6174683a207375627472616374696f6e206f766572666c6f77000081525060200191505060405180910390fd5b600082840390508091505092915050565b60008473ffffffffffffffffffffffffffffffffffffffff168373ffffffffffffffffffffffffffffffffffffffff1663d5f520766040518163ffffffff1660e01b815260040160206040518083038186803b15801561236557600080fd5b505afa158015612379573d6000803e3d6000fd5b505050506040513d602081101561238f57600080fd5b810190808051906020019092919050505073ffffffffffffffffffffffffffffffffffffffff161461240c576040517f08c379a00000000000000000000000000000000000000000000000000000000081526004018080602001828103825260268152602001806127666026913960400191505060405180910390fd5b60608273ffffffffffffffffffffffffffffffffffffffff1663ca9a33ce856040518263ffffffff1660e01b8152600401808273ffffffffffffffffffffffffffffffffffffffff1673ffffffffffffffffffffffffffffffffffffffff16815260200191505060006040518083038186803b15801561248b57600080fd5b505afa15801561249f573d6000803e3d6000fd5b505050506040513d6000823e3d601f19601f8201168201806040525060208110156124c957600080fd5b81019080805160405193929190846401000000008211156124e957600080fd5b838201915060208201858111156124ff57600080fd5b825186602082028301116401000000008211171561251c57600080fd5b8083526020830192505050908051906020019060200280838360005b83811015612553578082015181840152602081019050612538565b505050509050016040525050509050612575858261260890919063ffffffff16565b915050949350505050565b6000808284019050838110156125fe576040517f08c379a000000000000000000000000000000000000000000000000000000000815260040180806020018281038252601b8152602001807f536166654d6174683a206164646974696f6e206f766572666c6f77000000000081525060200191505060405180910390fd5b8091505092915050565b600080600090505b83518110156126775783818151811061262557fe5b602002602001015173ffffffffffffffffffffffffffffffffffffffff168373ffffffffffffffffffffffffffffffffffffffff16141561266a57600191505061267d565b8080600101915050612610565b50600090505b9291505056fe5265666572656e6365204944206e6f7420756e6971756520666f7220686f6c64657220616e64206f70657261746f7252657175657374656420616d6f756e742069732067726561746572207468616e2074686520626f6e644f6e6c79206772616e74656520697320616c6c6f77656420746f20776974686472617720626f6e6452657175657374656420616d6f756e742073686f756c642062652067726561746572207468616e207a65726f4f6e6c79206f70657261746f72206f7220746865206f776e657220697320616c6c6f77656420746f20776974686472617720626f6e644e6f742061206772616e746565206f66207468652070726f766964656420636f6e7472616374a265627a7a7231582089d6aab30a14639735958e44e7277324dd11aaeca1b587b2bf4ad078d6d8b55364736f6c63430005110032",
  "source": "/**\n     \n   \n                            \n                             \n                           \n                           \n                          \n     \n     \n\n                           Trust math, not hardware.\n*/\n\npragma solidity 0.5.17;\n\nimport \"@keep-network/keep-core/contracts/KeepRegistry.sol\";\nimport \"@keep-network/keep-core/contracts/TokenStaking.sol\";\nimport \"@keep-network/keep-core/contracts/TokenGrant.sol\";\nimport \"@keep-network/keep-core/contracts/libraries/RolesLookup.sol\";\n\nimport \"openzeppelin-solidity/contracts/math/SafeMath.sol\";\n\n\n/// @title Keep Bonding\n/// @notice Contract holding deposits from keeps' operators.\ncontract KeepBonding {\n    using SafeMath for uint256;\n    using RolesLookup for address payable;\n\n    // Registry contract with a list of approved factories (operator contracts).\n    KeepRegistry internal registry;\n\n    // KEEP token staking contract.\n    TokenStaking internal tokenStaking;\n\n    // KEEP token grant contract.\n    TokenGrant internal tokenGrant;\n\n    // Unassigned value in wei deposited by operators.\n    mapping(address => uint256) public unbondedValue;\n\n    // References to created bonds. Bond identifier is built from operator's\n    // address, holder's address and reference ID assigned on bond creation.\n    mapping(bytes32 => uint256) internal lockedBonds;\n\n    // Sortition pools authorized by operator's authorizer.\n    // operator -> pool -> boolean\n    mapping(address => mapping(address => bool)) internal authorizedPools;\n\n    event UnbondedValueDeposited(address indexed operator, uint256 amount);\n    event UnbondedValueWithdrawn(address indexed operator, uint256 amount);\n    event BondCreated(\n        address indexed operator,\n        address indexed holder,\n        address indexed sortitionPool,\n        uint256 referenceID,\n        uint256 amount\n    );\n    event BondReassigned(\n        address indexed operator,\n        uint256 indexed referenceID,\n        address newHolder,\n        uint256 newReferenceID\n    );\n    event BondReleased(address indexed operator, uint256 indexed referenceID);\n    event BondSeized(\n        address indexed operator,\n        uint256 indexed referenceID,\n        address destination,\n        uint256 amount\n    );\n\n    /// @notice Initializes Keep Bonding contract.\n    /// @param registryAddress Keep registry contract address.\n    /// @param tokenStakingAddress KEEP token staking contract address.\n    /// @param tokenGrantAddress KEEP token grant contract address.\n    constructor(\n        address registryAddress,\n        address tokenStakingAddress,\n        address tokenGrantAddress\n    ) public {\n        registry = KeepRegistry(registryAddress);\n        tokenStaking = TokenStaking(tokenStakingAddress);\n        tokenGrant = TokenGrant(tokenGrantAddress);\n    }\n\n    /// @notice Add the provided value to operator's pool available for bonding.\n    /// @param operator Address of the operator.\n    function deposit(address operator) external payable {\n        unbondedValue[operator] = unbondedValue[operator].add(msg.value);\n        emit UnbondedValueDeposited(operator, msg.value);\n    }\n\n    /// @notice Returns the amount of wei the operator has made available for\n    /// bonding and that is still unbounded. If the operator doesn't exist or\n    /// bond creator is not authorized as an operator contract or it is not\n    /// authorized by the operator or there is no secondary authorization for\n    /// the provided sortition pool, function returns 0.\n    /// @dev Implements function expected by sortition pools' IBonding interface.\n    /// @param operator Address of the operator.\n    /// @param bondCreator Address authorized to create a bond.\n    /// @param authorizedSortitionPool Address of authorized sortition pool.\n    /// @return Amount of authorized wei deposit available for bonding.\n    function availableUnbondedValue(\n        address operator,\n        address bondCreator,\n        address authorizedSortitionPool\n    ) public view returns (uint256) {\n        // Sortition pools check this condition and skips operators that\n        // are no longer eligible. We cannot revert here.\n        if (\n            registry.isApprovedOperatorContract(bondCreator) &&\n            tokenStaking.isAuthorizedForOperator(operator, bondCreator) &&\n            hasSecondaryAuthorization(operator, authorizedSortitionPool)\n        ) {\n            return unbondedValue[operator];\n        }\n\n        return 0;\n    }\n\n    /// @notice Withdraws amount from operator's value available for bonding.\n    /// Should not be used by grantee of managed grants. For this case,\n    /// please use `withdrawAsManagedGrantee`.\n    ///\n    /// This function can be called only by:\n    /// - operator,\n    /// - liquid, staked tokens owner (not a grant),\n    /// - direct staked tokens grantee (not a managed grant).\n    ///\n    /// @param amount Value to withdraw in wei.\n    /// @param operator Address of the operator.\n    function withdraw(uint256 amount, address operator) public {\n        require(\n            msg.sender == operator ||\n                msg.sender.isTokenOwnerForOperator(operator, tokenStaking) ||\n                msg.sender.isGranteeForOperator(operator, tokenGrant),\n            \"Only operator or the owner is allowed to withdraw bond\"\n        );\n\n        withdrawBond(amount, operator);\n    }\n\n    /// @notice Withdraws amount from operator's value available for bonding.\n    /// Can be called only by staked tokens managed grantee.\n    /// @param amount Value to withdraw in wei.\n    /// @param operator Address of the operator.\n    /// @param managedGrant Address of the managed grant contract.\n    function withdrawAsManagedGrantee(\n        uint256 amount,\n        address operator,\n        address managedGrant\n    ) public {\n        require(\n            msg.sender.isManagedGranteeForOperator(\n                operator,\n                managedGrant,\n                tokenGrant\n            ),\n            \"Only grantee is allowed to withdraw bond\"\n        );\n\n        withdrawBond(amount, operator);\n    }\n\n    /// @notice Create bond for the given operator, holder, reference and amount.\n    /// @dev Function can be executed only by authorized contract. Reference ID\n    /// should be unique for holder and operator.\n    /// @param operator Address of the operator to bond.\n    /// @param holder Address of the holder of the bond.\n    /// @param referenceID Reference ID used to track the bond by holder.\n    /// @param amount Value to bond in wei.\n    /// @param authorizedSortitionPool Address of authorized sortition pool.\n    function createBond(\n        address operator,\n        address holder,\n        uint256 referenceID,\n        uint256 amount,\n        address authorizedSortitionPool\n    ) public {\n        require(\n            availableUnbondedValue(\n                operator,\n                msg.sender,\n                authorizedSortitionPool\n            ) >= amount,\n            \"Insufficient unbonded value\"\n        );\n\n        bytes32 bondID = keccak256(\n            abi.encodePacked(operator, holder, referenceID)\n        );\n\n        require(\n            lockedBonds[bondID] == 0,\n            \"Reference ID not unique for holder and operator\"\n        );\n\n        unbondedValue[operator] = unbondedValue[operator].sub(amount);\n        lockedBonds[bondID] = lockedBonds[bondID].add(amount);\n\n        emit BondCreated(\n            operator,\n            holder,\n            authorizedSortitionPool,\n            referenceID,\n            amount\n        );\n    }\n\n    /// @notice Returns value of wei bonded for the operator.\n    /// @param operator Address of the operator.\n    /// @param holder Address of the holder of the bond.\n    /// @param referenceID Reference ID of the bond.\n    /// @return Amount of wei in the selected bond.\n    function bondAmount(address operator, address holder, uint256 referenceID)\n        public\n        view\n        returns (uint256)\n    {\n        bytes32 bondID = keccak256(\n            abi.encodePacked(operator, holder, referenceID)\n        );\n\n        return lockedBonds[bondID];\n    }\n\n    /// @notice Reassigns a bond to a new holder under a new reference.\n    /// @dev Function requires that a caller is the current holder of the bond\n    /// which is being reassigned.\n    /// @param operator Address of the bonded operator.\n    /// @param referenceID Reference ID of the bond.\n    /// @param newHolder Address of the new holder of the bond.\n    /// @param newReferenceID New reference ID to register the bond.\n    function reassignBond(\n        address operator,\n        uint256 referenceID,\n        address newHolder,\n        uint256 newReferenceID\n    ) public {\n        address holder = msg.sender;\n        bytes32 bondID = keccak256(\n            abi.encodePacked(operator, holder, referenceID)\n        );\n\n        require(lockedBonds[bondID] > 0, \"Bond not found\");\n\n        bytes32 newBondID = keccak256(\n            abi.encodePacked(operator, newHolder, newReferenceID)\n        );\n\n        require(\n            lockedBonds[newBondID] == 0,\n            \"Reference ID not unique for holder and operator\"\n        );\n\n        lockedBonds[newBondID] = lockedBonds[bondID];\n        lockedBonds[bondID] = 0;\n\n        emit BondReassigned(operator, referenceID, newHolder, newReferenceID);\n    }\n\n    /// @notice Releases the bond and moves the bond value to the operator's\n    /// unbounded value pool.\n    /// @dev Function requires that caller is the holder of the bond which is\n    /// being released.\n    /// @param operator Address of the bonded operator.\n    /// @param referenceID Reference ID of the bond.\n    function freeBond(address operator, uint256 referenceID) public {\n        address holder = msg.sender;\n        bytes32 bondID = keccak256(\n            abi.encodePacked(operator, holder, referenceID)\n        );\n\n        require(lockedBonds[bondID] > 0, \"Bond not found\");\n\n        uint256 amount = lockedBonds[bondID];\n        lockedBonds[bondID] = 0;\n        unbondedValue[operator] = unbondedValue[operator].add(amount);\n\n        emit BondReleased(operator, referenceID);\n    }\n\n    /// @notice Seizes the bond by moving some or all of the locked bond to the\n    /// provided destination address.\n    /// @dev Function requires that a caller is the holder of the bond which is\n    /// being seized.\n    /// @param operator Address of the bonded operator.\n    /// @param referenceID Reference ID of the bond.\n    /// @param amount Amount to be seized.\n    /// @param destination Address to send the amount to.\n    function seizeBond(\n        address operator,\n        uint256 referenceID,\n        uint256 amount,\n        address payable destination\n    ) public {\n        require(amount > 0, \"Requested amount should be greater than zero\");\n\n        address payable holder = msg.sender;\n        bytes32 bondID = keccak256(\n            abi.encodePacked(operator, holder, referenceID)\n        );\n\n        require(\n            lockedBonds[bondID] >= amount,\n            \"Requested amount is greater than the bond\"\n        );\n\n        lockedBonds[bondID] = lockedBonds[bondID].sub(amount);\n\n        (bool success, ) = destination.call.value(amount)(\"\");\n        require(success, \"Transfer failed\");\n\n        emit BondSeized(operator, referenceID, destination, amount);\n    }\n\n    /// @notice Authorizes sortition pool for the provided operator.\n    /// Operator's authorizers need to authorize individual sortition pools\n    /// per application since they may be interested in participating only in\n    /// a subset of keep types used by the given application.\n    /// @dev Only operator's authorizer can call this function.\n    function authorizeSortitionPoolContract(\n        address _operator,\n        address _poolAddress\n    ) public {\n        require(\n            tokenStaking.authorizerOf(_operator) == msg.sender,\n            \"Not authorized\"\n        );\n        authorizedPools[_operator][_poolAddress] = true;\n    }\n\n    /// @notice Deauthorizes sortition pool for the provided operator.\n    /// Authorizer may deauthorize individual sortition pool in case the\n    /// operator should no longer be eligible for work selection and the\n    /// application represented by the sortition pool should no longer be\n    /// eligible to create bonds for the operator.\n    /// @dev Only operator's authorizer can call this function.\n    function deauthorizeSortitionPoolContract(\n        address _operator,\n        address _poolAddress\n    ) public {\n        require(\n            tokenStaking.authorizerOf(_operator) == msg.sender,\n            \"Not authorized\"\n        );\n        authorizedPools[_operator][_poolAddress] = false;\n    }\n\n    /// @notice Checks if the sortition pool has been authorized for the\n    /// provided operator by its authorizer.\n    /// @dev See authorizeSortitionPoolContract.\n    function hasSecondaryAuthorization(address _operator, address _poolAddress)\n        public\n        view\n        returns (bool)\n    {\n        return authorizedPools[_operator][_poolAddress];\n    }\n\n    /// @notice Withdraws the provided amount from unbonded value of the\n    /// provided operator to operator's beneficiary. If there is no enough\n    /// unbonded value or the transfer failed, function fails.\n    function withdrawBond(uint256 amount, address operator) internal {\n        require(\n            unbondedValue[operator] >= amount,\n            \"Insufficient unbonded value\"\n        );\n\n        unbondedValue[operator] = unbondedValue[operator].sub(amount);\n\n        (bool success, ) = tokenStaking.beneficiaryOf(operator).call.value(\n            amount\n        )(\"\");\n        require(success, \"Transfer failed\");\n\n        emit UnbondedValueWithdrawn(operator, amount);\n    }\n}\n",
  "sourcePath": "/tmp/91179c3cabaf1417019e2979f9046946ac5e805b/solidity/contracts/KeepBonding.sol",
  "compiler": {
    "name": "solc",
    "version": "0.5.17+commit.d19bba13.Emscripten.clang"
  },
  "schemaVersion": "3.0.22",
  "updatedAt": "2020-06-22T15:27:22.611Z",
  "networkType": "ethereum",
  "devdoc": {
    "methods": {
      "authorizeSortitionPoolContract(address,address)": {
        "details": "Only operator's authorizer can call this function."
      },
      "availableUnbondedValue(address,address,address)": {
        "details": "Implements function expected by sortition pools' IBonding interface.",
        "params": {
          "authorizedSortitionPool": "Address of authorized sortition pool.",
          "bondCreator": "Address authorized to create a bond.",
          "operator": "Address of the operator."
        },
        "return": "Amount of authorized wei deposit available for bonding."
      },
      "bondAmount(address,address,uint256)": {
        "params": {
          "holder": "Address of the holder of the bond.",
          "operator": "Address of the operator.",
          "referenceID": "Reference ID of the bond."
        },
        "return": "Amount of wei in the selected bond."
      },
      "constructor": {
        "params": {
          "registryAddress": "Keep registry contract address.",
          "tokenGrantAddress": "KEEP token grant contract address.",
          "tokenStakingAddress": "KEEP token staking contract address."
        }
      },
      "createBond(address,address,uint256,uint256,address)": {
        "details": "Function can be executed only by authorized contract. Reference ID should be unique for holder and operator.",
        "params": {
          "amount": "Value to bond in wei.",
          "authorizedSortitionPool": "Address of authorized sortition pool.",
          "holder": "Address of the holder of the bond.",
          "operator": "Address of the operator to bond.",
          "referenceID": "Reference ID used to track the bond by holder."
        }
      },
      "deauthorizeSortitionPoolContract(address,address)": {
        "details": "Only operator's authorizer can call this function."
      },
      "deposit(address)": {
        "params": {
          "operator": "Address of the operator."
        }
      },
      "freeBond(address,uint256)": {
        "details": "Function requires that caller is the holder of the bond which is being released.",
        "params": {
          "operator": "Address of the bonded operator.",
          "referenceID": "Reference ID of the bond."
        }
      },
      "hasSecondaryAuthorization(address,address)": {
        "details": "See authorizeSortitionPoolContract."
      },
      "reassignBond(address,uint256,address,uint256)": {
        "details": "Function requires that a caller is the current holder of the bond which is being reassigned.",
        "params": {
          "newHolder": "Address of the new holder of the bond.",
          "newReferenceID": "New reference ID to register the bond.",
          "operator": "Address of the bonded operator.",
          "referenceID": "Reference ID of the bond."
        }
      },
      "seizeBond(address,uint256,uint256,address)": {
        "details": "Function requires that a caller is the holder of the bond which is being seized.",
        "params": {
          "amount": "Amount to be seized.",
          "destination": "Address to send the amount to.",
          "operator": "Address of the bonded operator.",
          "referenceID": "Reference ID of the bond."
        }
      },
      "withdraw(uint256,address)": {
        "params": {
          "amount": "Value to withdraw in wei.",
          "operator": "Address of the operator."
        }
      },
      "withdrawAsManagedGrantee(uint256,address,address)": {
        "params": {
          "amount": "Value to withdraw in wei.",
          "managedGrant": "Address of the managed grant contract.",
          "operator": "Address of the operator."
        }
      }
    },
    "title": "Keep Bonding"
  },
  "userdoc": {
    "methods": {
      "authorizeSortitionPoolContract(address,address)": {
        "notice": "Authorizes sortition pool for the provided operator. Operator's authorizers need to authorize individual sortition pools per application since they may be interested in participating only in a subset of keep types used by the given application."
      },
      "availableUnbondedValue(address,address,address)": {
        "notice": "Returns the amount of wei the operator has made available for bonding and that is still unbounded. If the operator doesn't exist or bond creator is not authorized as an operator contract or it is not authorized by the operator or there is no secondary authorization for the provided sortition pool, function returns 0."
      },
      "bondAmount(address,address,uint256)": {
        "notice": "Returns value of wei bonded for the operator."
      },
      "constructor": "Initializes Keep Bonding contract.",
      "createBond(address,address,uint256,uint256,address)": {
        "notice": "Create bond for the given operator, holder, reference and amount."
      },
      "deauthorizeSortitionPoolContract(address,address)": {
        "notice": "Deauthorizes sortition pool for the provided operator. Authorizer may deauthorize individual sortition pool in case the operator should no longer be eligible for work selection and the application represented by the sortition pool should no longer be eligible to create bonds for the operator."
      },
      "deposit(address)": {
        "notice": "Add the provided value to operator's pool available for bonding."
      },
      "freeBond(address,uint256)": {
        "notice": "Releases the bond and moves the bond value to the operator's unbounded value pool."
      },
      "hasSecondaryAuthorization(address,address)": {
        "notice": "Checks if the sortition pool has been authorized for the provided operator by its authorizer."
      },
      "reassignBond(address,uint256,address,uint256)": {
        "notice": "Reassigns a bond to a new holder under a new reference."
      },
      "seizeBond(address,uint256,uint256,address)": {
        "notice": "Seizes the bond by moving some or all of the locked bond to the provided destination address."
      },
      "withdraw(uint256,address)": {
        "notice": "Withdraws amount from operator's value available for bonding. Should not be used by grantee of managed grants. For this case, please use `withdrawAsManagedGrantee`.     /// This function can be called only by: - operator, - liquid, staked tokens owner (not a grant), - direct staked tokens grantee (not a managed grant). "
      },
      "withdrawAsManagedGrantee(uint256,address,address)": {
        "notice": "Withdraws amount from operator's value available for bonding. Can be called only by staked tokens managed grantee."
      }
    },
    "notice": "Contract holding deposits from keeps' operators."
  }
}